:100000000C94E00B0C94FF0B0C94FF0B0C94FF0B67
:100010000C94FF0B0C94FF0B0C94FF0B0C94FF0B38
:100020000C94FF0B0C94FF0B0C94FF0B0C94FF0B28
:100030000C94FF0B0C94FF0B0C94FF0B0C94FF0B18
:100040000C94FF0B0C94FF0B0C94FF0B0C94FF0B08
:100050000C94FF0B0C94FF0B0C94FF0B0C94FF0BF8
:100060000C94FF0B0C94FF0B0C94E92B0C94FF0BDE
:100070000C94FF0B0C94FF0B0C94FF0B0C94FF0BD8
:100080000C94FF0B0C94FF0B0C94FF0BC52AD72A82
:10009000D72AD72AD72AD72AD72AD72AD72AD72A58
:1000A000D72AD72AD72AD72AD72AD72AD72AD72A48
:1000B000D72AD72AD72AD72AD72AD72AD72AD72A38
:1000C000D72AD72AD72A15272627AC26C126D626EF
:1000D000EB26002737274C27612776279227BA2A55
:1000E000D72ADD27D72AD72AA72AD72AB427E9274C
:1000F00000000000EC78CECEFEEE7CFC000000009C
:10010000000000007C38787C3838181800000000A7
:1001100000000000F800ECF87C1CFEF800FC000079
:1001200000000000F800ECF81C3CFCDE007C000045
:10013000000000003C1CFC7CFEFC18FE00000000DF
:1001400000000000FCFC78C01E3CFCFC000000002D
:10015000000000007030FCF0FEEE7CFC00000000AF
:1001600000000000FCFC1CFC3838303800000000A7
:1001700000000000EC7CFCFCDEFEFCFE0000000049
:1001800000000000FC7CFEFE1CFC3038000000007B
:10019000000000000000000000000000000000005F
:1001A000000000000000000000000000000000004F
:1001B000000000000000000000000000000000003F
:1001C000030000C00C000030100000081000000800
:1001D000200000042000000420000004200000048F
:1001E00010000008100000080C003830030040C068
:1001F000010040000100800101000006010000181C
:100200000F0000E031000000C10000000103000009
:10021000010400000104000001380000010000009A
:1002200001000000010000000100000001000000CA
:100230000300000002000080040000800400004071
:1002400004000040080000200800002008000020F2
:100250001000001010000010100000102000000816
:1002600020000008200000082000000820000008EE
:10027000E000000E00000000000000000000000090
:10028000000000000000000000000000000000006E
:10029000000000000000000000000000000000005E
:1002A0000000000000000000000000000E000F1E13
:1002B0000F838EC71D380F87C00E1C308E0FC01DD8
:1002C000383F8C1D801F7103CCB9CE387707EEB94B
:1002D000CE3B1E7F0C1F001E00000000000000002F
:1002E000000000000000000000000000000000000E
:1002F00000000000000000000000000000000000FE
:1003000000000000000000000000000000000000ED
:1003100000000000000000000000000000000000DD
:100320000000000000000000030000801C0000002E
:100330007F0007C0FE830000710007E08E0300000D
:1003400038000F78CF81000038001F3CC7C1000083
:100350003C001F70E7C100803C001DE0C3C100806D
:1003600039003DC0C3C100803B003980C3E100C0FB
:100370003F007880C1E100C03B00FFC1C1E100E067
:100380003900FFE1C0F100E03800E0F0C1F100F019
:100390003800E0F0CFF100C03900E0E0FF7100006C
:1003A0003B00C0C1FC710000000000000000000024
:1003B000000000000000000000000000000000003D
:1003C000000000000000000000000000000000002D
:1003D000000000000000000000000000000000001D
:1003E000000000000000000000000000000000000D
:1003F00000000000000000000000000000000000FD
:1004000000000000000000000000000000000000EC
:1004100000000000000000000000000000000000DC
:10042000030000C00C00003010000008100000089D
:10043000200000042000000420000004200000042C
:1004400010000008100000080C000030030000C07D
:100450000100000001000000010000000300008016
:100460000300008005000040050000400900002056
:1004700009000020110000201100001021000010D0
:10048000210000084100000841020005810100062A
:10049000030000000200008004000080040000400F
:1004A0000400004008000020080000200800002090
:1004B00010000010100000101000001020000008B4
:1004C000200000082000000820000008200000088C
:1004D000E000000E0000000000000000000000002E
:1004E000000000000000000000000000000000000C
:1004F00000000000000000000000000000000000FC
:1005000000000000000000000000000000000000EB
:1005100000000000000000000000000000000000DB
:10052000030000C00C00003010000008100000089C
:100530002000000420000004200800042000000423
:1005400010220008903B0008CC080030430400C093
:1005500041040000C104000041060000FF07000044
:10056000FF03000001000004010000000100000082
:100570000100000001000000010000000100000077
:100580000100000001000040010000000100000027
:100590000300000001000000010000000100000055
:1005A0000200008004000080090000001900000023
:1005B00012000000120000001200000012000000F3
:1005C00031000000210000002100008020000040D8
:1005D00020000020E00100380000000000000000C2
:1005E000000000000000000000000000000000000B
:1005F00000000000000000000000000000000000FB
:1006000000000000FF3DFFC0FD7FFF8031663680A7
:10061000316636803166368031663688317E36F80E
:10062000313CB6FB000000000000000000000000AC
:1006300000000000000000000000000000000000BA
:10064000000000008007000060180000102000007B
:100650001020000008400000E87D0000087C000039
:10066000084C0000102C0000102C0000701000003E
:100670009C0F00002400000027000000650000001F
:10068000640000804400004044000040440000201A
:10069000440000304400002844000068C8000048BE
:1006A0008800004C88000044880000478800804192
:1006B0008800E0408807384038000C4000000660A1
:1006C0000000023E0000E201000066000000C400DD
:1006D000000080000000000000000000000000009A
:1006E000000000000000000000000000000000000A
:1006F00000000000000000000000000000000000FA
:1007000000000000000000000000000000000000E9
:1007100000000000000000000000000000000000D9
:10072000030000C00C00003010000008100000089A
:10073000201800042068000420080004200400049D
:1007400010040008100200080C020030030100C071
:1007500001010000C100000039000000070000C0D6
:10076000010000300100000C010000020100000146
:100770000100000101000001010000060100000865
:1007800001000030010000400100002001000000D5
:100790000300000003000000060000000600000047
:1007A0000A0000000A0000000C0000000C0000001D
:1007B00004000000040000000A000000090000001E
:1007C00008000080080000800800004008000020A9
:1007D0000800001078000020000000400000000029
:1007E0000000000000000000000000000000000009
:1007F00000000000000000000000000000000000F9
:1008000000000000000000000000000000000000E8
:1008100000000000000000000000000000000000D8
:1008200000000000000000000000000000000000C8
:1008300000000000000000000300E0E1E0F3000021
:100840000700F3F7F8FB00000F003BF7FC9F0000E8
:100850000C003F6FFE9D00001C003F0FFF9F00003B
:100860001D003FFFFF9F00001D003FFFFF9F000096
:100870001E00FF7FFFFF00001F00FFFFDEFD0000E6
:100880000F00FBF7FEFF00000700F1E3FCF900009A
:100890000000000000000000000000000000000058
:1008A0000000000000000000000000000000000048
:1008B0000000000000000000000000000000000038
:1008C0000000000000000000000000000000000028
:1008D0000000000000000000000000000000000018
:1008E0000000000000000000000000000000000008
:1008F00000000000000000000000000000000000F8
:1009000000000000000000000000000000000000E7
:1009100000000000000000000000000000000000D7
:1009200000000000000000000000000000000000C7
:1009300000000000000000000000000000000000B7
:100940007F000FF87F8E00DCFF001FFF7F9F00FEFF
:10095000FF013FFFFFBF00FE8C013CFFBF3F00FED9
:1009600080037FFFCF3F003EBE037FFFCF7F003E6F
:10097000BE0370FCCF7F001CCE037FFECFF3001CB4
:10098000FE037FFECFFF001CFE01FFFFC7FF003EFE
:10099000FC00BFEFC7F3001C0000000000000000D7
:1009A0000000000000000000000000000000000047
:1009B0000000000000000000000000000000000037
:1009C0000000000000000000000000000000000027
:1009D0000000000000000000000000000000000017
:1009E0000000000000000000000000000000000007
:1009F00000000000000000000000000000000000F7
:100A0000040000200E0000700F0000F0C701C0E3DA
:100A1000330220CC1D04209C04081018003018005C
:100A2000031008C00C200830102008081020080807
:100A30002020080420200804201010042010100496
:100A400010182008100820080C064030030240C08F
:100A500001018000810000036100000C3B0000B038
:100A60000F0000C0010000000100000001000000B4
:100A70000100000001000000010000000100000072
:100A80000100000001000000010000000100000062
:100A90000300000002000080040000800400004009
:100AA000040000400800002008000020080000208A
:100AB00010000010100000101000001020000008AE
:100AC0002000000820000008200000082000000886
:100AD000E000000E00000000000000000000000028
:100AE0000000000000000000000000000000000006
:100AF00000000000000000000000000000000000F6
:100B000000000000000000000000000000000000E5
:100B100000000000000000000000000000000000D5
:100B2000030000C00C0000341000000C1000000C8A
:100B300020000006200000052000000520008004A1
:100B400010008008100040080C004030030040C036
:100B500001008000010000030100001C030000E010
:100B60000500000009000000110000002100000045
:100B70002100000020000080200000802000008074
:100B80001000004008000040040000200300002086
:100B9000000000F0000000100000002800000048E5
:100BA0000100009006000020180000402000008096
:100BB000410000008200000082000000820000006E
:100BC000820000008200000082000000820000001D
:100BD0008E03000000000000000000000000000084
:100BE0000000000000000000000000000000000005
:100BF00000000000000000000000000000000000F5
:100C000000000000000000000000000000000000E4
:100C100000000000000000000000000000000000D4
:100C200000000000000000000000000000000000C4
:100C3000000000000000000000001CE6F8F80000C2
:100C400001003DFFFCFD00000100BDFFF0F10000D0
:100C50000100BDFFF0F100000300BDFFF8F9000046
:100C60000300BCFFFCFC00000300FCFF7E7E0000D4
:100C70000300FCBF3E3E00000300DCBF3E3E000020
:100C800003009F87FCFF000003009983F8F9000030
:100C90000000000000000000000000000000000054
:100CA0000000000000000000000000000000000044
:100CB0000000000000000000000000000000000034
:100CC0000000000000000000000000000000000024
:100CD0000000000000000000000000000000000014
:100CE0000000000000000000000000000000000004
:100CF00000000000000000000000000000000000F4
:100D000000000000000000000000000000000000E3
:100D100000000000000000000000000000000000D3
:100D200000000000000000000000000000000000C3
:100D300000000000000000000000000000000000B3
:100D40000000010000F030000000030000803000CF
:100D5000000003000080700007FFFFC6E0E3FE7D97
:100D6000C607C3E7708370EC8E7183E7718770C02C
:100D70009F7303E7F18F70C09F730307830F708029
:100D8000387303E7771C701C3F7F03E7F71F70FC85
:100D90000F7C0307810770E0007000000000000076
:100DA00000700000000000000000000000000000D3
:100DB0000000000000000000000000000000000033
:100DC0000000000000000000000000000000000023
:100DD0000000000000000000000000000000000013
:100DE0000000000000000000000000000000000003
:100DF00000000000000000000000000000000000F3
:100E000000000000000000000000000000000000E2
:100E100000000000000000000000000000000000D2
:100E20000000000000000000030000C00C000030C3
:100E30001000000810200008201000042008000402
:100E400020040004200200041001000890000008A3
:100E50004C000030230000C0110000040900000213
:100E600005000001030000020100008401000048A9
:100E7000010000300100000001000000010000003E
:100E8000010000000100000001000000010000005E
:100E900001000000010000000300000002000080CB
:100EA000040000800400004004000040080000200E
:100EB00008000020080000200400001004000010BA
:100EC000040000100200000801000004000000827D
:100ED00000000041000080200000401000000000E1
:100EE0000000000000000000000000000000000002
:100EF00000000000000000000000000000000000F2
:100F00000000700EFC1FFC3FFE7FFE7FFE7FFE7F19
:100F1000FC3FFC3FF81FF00FE007C003000000009B
:100F200000000000000000000000000000000000C1
:100F3000ED7D78FE7FE3DCF73FC3CCF63FC3CCFE0C
:100F40003FC3CCF37CE3DCF3EC7D78FE00000000D3
:100F50000000000000000000000000000000000091
:100F60000000000000000000000000000000000081
:100F70000000000000000000000000000000000071
:100F80000000000000008001C001E001F001B0019C
:100F9000B001B001E001C007000F00000000000038
:100FA0000000000000000000000000000000000041
:100FB0000000000000000000000000000000000031
:100FC0000000000000000000000000000000000021
:100FD0000000000000000000000000000000000011
:100FE0000000000000000000000000000000000001
:100FF00000000000000000000000000000000000F1
:1010000000000000000000000000000000000000E0
:1010100000000000000000000000000000000000D0
:1010200000000000000000000000000000000000C0
:1010300000000000000000000000000000000000B0
:1010400000000000000000000000000000000000A0
:101050000000000000000000000000000000000090
:101060000000000000000000000000000000000080
:101070000000000000000000000000000000000070
:101080000000000000000000000000000000000060
:101090000000000000000000000000000000000050
:1010A0000000000000000000000000000000000040
:1010B00000000000F000000000000000F000000050
:1010C00000000000F000000000000000F000000040
:1010D0000000E001F000000000000000F00000004F
:1010E0000000F001F00000000000FF1FF080000091
:1010F0000000F001F00000000000FF1FF080000081
:101100000000F000F000000000007800F000000097
:101110000000F000F000FF0700F8F800F000000009
:101120000000F000F000FF07E0FFF000F00000001A
:101130000000F000F0000300E0FFF000F07F00008E
:101140000000F000F0000000E003F001F0FF0000FC
:101150000000F700F0000000E003F001F0E0000004
:101160000000FF0FF0F00000C003E003F0000000FB
:101170000000FF7FF0F00000C003FF07F0800000D8
:101180000000F87FF000FF01C0F39F0FE0E00000D7
:101190000000F001F000FF07C0FF071FE0F00000B3
:1011A0000000EF03F080FF07C0FF003EE0F000000A
:1011B0000000C707F0BF0000C007007C000000006F
:1011C0000000C70FF0FF0000C00700787870000033
:1011D0000000871FF0F800008007000078F0000092
:1011E0000000031FF0C000008007000078F000003E
:1011F0000000033EF0C00000000F0000F8FF0000F8
:1012000000003F3EF0E0000000030000F8FF000097
:101210000000FF1FE0E0000000000000F8FF0000F9
:101220000000FE0FE000000000000100F8F30000E5
:101230000000E00FE000000000000100FCF70000EB
:1012400000000006E000000000000100FCE70000D4
:1012500000000000E000000000000100E0EF0000DE
:1012600000000000000000000000010000E000009D
:10127000000000000000000000000000000000006E
:10128000000000000000000000000000000000005E
:10129000000000000000000000000000000000004E
:1012A000000000000000000000000000000000003E
:1014A00000000000007000000000000000000000CC
:1014B0000000010000F80000000000000000000033
:1014C0000000030000FC000000000000000000001D
:1014D0000000070000F0000000F80000000000001D
:1014E00000001F0000DF0F0000F8000000000000F7
:1014F00000003F00808FFF0000FC000000000000A3
:1015000000007E00C007FF0300FC00000000000098
:101510000000FC01E003FC03007E0000000000006E
:101520000000F003F0018001003EFFFF008000009A
:101530000000E007FC010000003EFFFF80FF00000C
:101540000000C00FFE7F0000007EFF0780FF00004C
:101550000000EF07E6FF000000FC0000803F0000F5
:101560000000FF0300FC000000F80000800F0000F6
:101570000000FF0100F0010000F00000800F0000FB
:101580000000F80000F0030000F00000001F000061
:101590000000000000F0030000E00000001F000059
:1015A00000000000FFFF070000C0FF07001F000051
:1015B0000000FF07FFFF0F0000C0FFFF00DF00007B
:1015C0000000FF0FFFFF0F000080FFFF00DF0000A3
:1015D0000000FF0F00001F0000000000001F0000BF
:1015E0000000000000783E0000000000003F000006
:1015F0000000030000FE3E0000000000003E00006E
:1016000000003F0080FF7C0000000000003E000062
:1016100000003F00C0FF180000000000003E000076
:1016200000003E00E03F000000000000003C000021
:101630000000000000FE000000000000003C000070
:101640000000030000F83C00000000000000000063
:1016500000000F0000FF3E0000000000000000003E
:1016600000000F0080FF3E000000000000000000AE
:101670000000070080FF3E000000000000000000A6
:101680000000000000FE3C00000000000000000020
:1016900000000300C0FF0000000000000000000088
:1016A00000000300C0FF0000000000000000000078
:1016B00000000100C0FF000000000000000000006A
:1016C000000000000000000000000000000000001A
:1016D000000000000000000000000000000000000A
:1016E00000000000000000000000000000000000FA
:1016F00000000000000000000000000000000000EA
:1017000000000000000000000000000000000000D9
:1017100000000000000000000000000000000000C9
:1017200000000000000000000000000000000000B9
:1017300000000000000000000000000000000000A9
:101740000000000000000000000000000000000099
:101750000000000000000000000000000000000089
:101760000000000000000000000000000000000079
:101770000000000000000000000000000000000069
:101780000000000000000000000000000000000059
:101790000000000000000000000000000000000049
:1017A00000000000042008101008200440028001FE
:1017B00080014002200410080810042000000000EE
:1017C00011241FBECFEFD0E1DEBFCDBF12E0A0E0FD
:1017D000B1E0ECEEF9E500E00BBF02C007900D921E
:1017E000A43FB107D9F716E0A4EFB2E001C01D9203
:1017F000A83EB107E1F70E9414180C94F42C0C9445
:1018000000000F931F93CF93DF935091B102C091CB
:101810007303D091740328E233E040E00FE11FE04E
:101820008C859D85009719F460E070E00BC0AA8557
:10183000BB851D969C938E931C97EC85FD85B38785
:10184000A287BF01A0918103B0918203109749F450
:10185000DB87CA87DD87CC87D0937A03C09379036F
:1018600012C0BB87AA871C968D919C911D979D875E
:101870008C871C96ED91FC911D97D387C2871D968E
:10188000DC93CE931C97D0938203C09381031D8277
:101890005160D9011196DC93CE930883ED91FC91B0
:1018A00011974183ED91FC911197415F4383ED9135
:1018B000FC9111971282ED91FC9111971483ED9197
:1018C000FD919D018581816085834F5F403811F0D6
:1018D000EB01A6CFD0937803C09377037093740382
:1018E0006093730352605093B102DF91CF911F91C7
:1018F0000F91089580916602482F50E0A8E2B3E06E
:10190000BA019A01220F331F2A0F3B1F9FE106C025
:10191000ED91FD919083858181608583A217B30746
:10192000B9F7DA01AA0FBB1FA85DBC4F20E030E079
:1019300008C0ED91FD9110828581816085832F5FC4
:101940003F4FC901860F971F08979CF38091B10202
:1019500082608093B1020895CF93DF93E091730387
:10196000F0917403F0937803E09377038485958571
:10197000009729F410927403109273030FC0A2858C
:10198000B3851D969C938E931C970484F585E02D5A
:10199000B387A287F0937403E0937303809181036C
:1019A00090918203A0917703B0917803009799F406
:1019B0000A2E1B2E1B961C920E9211241A970A2E89
:1019C0001B2E1D961C920E9211241C97B0937A0325
:1019D000A09379031DC01B969C938E931A97E09158
:1019E0008103F0918203848595851D969C938E9347
:1019F0001C97E0918103F09182030484F585E02D2A
:101A0000B387A287E0918103F0918203B587A48711
:101A1000E0917703F0917803F0938203E0938103E0
:101A200015828091B10281608093B102E0917703C9
:101A3000F0917803F0932403E093230381E0808303
:101A4000E0912303F091240380E18183E09123035B
:101A5000F09124038FE28383E0912303F091240328
:101A600080E28283E0912303F09124038FE5848355
:101A7000E0912303F0912403858181608583E091C7
:101A80007303F0917403F0937803E09377038485F4
:101A90009585009729F410927403109273030FC078
:101AA000A285B3851D969C938E931C970484F5851F
:101AB000E02DB387A287F0937403E09373038091C2
:101AC000810390918203A0917703B09178030097EE
:101AD00099F40A2E1B2E1B961C920E9211241A9713
:101AE0000A2E1B2E1D961C920E9211241C97B09349
:101AF0007A03A09379031DC01B969C938E931A972B
:101B0000E0918103F0918203848595851D969C93D5
:101B10008E931C97E0918103F09182030484F585F4
:101B2000E02DB387A287E0918103F0918203B5870E
:101B3000A487E0917703F0917803F0938203E09318
:101B4000810315828091B10281608093B102E0919E
:101B50007703F0917803F0933C03E0933B0380E537
:101B60008183E0913B03F0913C0381E08083E0912D
:101B70003B03F0913C038FE68383E0913B03F091BC
:101B80003C0380E28283E0913B03F0913C038FE5CC
:101B90008483E0913B03F0913C03858181608583E0
:101BA000E0917303F0917403F0937803E09377036B
:101BB00084859585009729F410927403109273031D
:101BC0000FC0A285B3851D969C938E931C970484A9
:101BD000F585E02DB387A287F0937403E093730338
:101BE0008091810390918203A0917703B091780353
:101BF000009799F40A2E1B2E1B961C920E9211240C
:101C00001A970A2E1B2E1D961C920E9211241C97B9
:101C1000B0937A03A09379031DC01B969C938E9377
:101C20001A97E0918103F0918203848595851D9632
:101C30009C938E931C97E0918103F091820304841E
:101C4000F585E02DB387A287E0918103F0918203AF
:101C5000B587A487E0917703F0917803F09382032E
:101C6000E093810315828091B10281608093B1027B
:101C7000E0917703F0917803F0935F03E0935E03C4
:101C800084E18183E0915E03F0915F0383E48383C9
:101C9000E0915E03F0915F0380E18283E0915E0357
:101CA000F0915F038FE18483E0915E03F0915F0325
:101CB00082E28083E0915E03F0915F038581816021
:101CC0008583C1E5D3E024E450E14FE134E1E091C4
:101CD0007303F0917403F0937803E09377038485A2
:101CE0009585009729F410927403109273030FC026
:101CF000A285B3851D969C938E931C970484F585CD
:101D0000E02DB387A287F0937403E093730380916F
:101D1000810390918203A0917703B091780300979B
:101D200099F40A2E1B2E1B961C920E9211241A97C0
:101D30000A2E1B2E1D961C920E9211241C97B093F6
:101D40007A03A09379031DC01B969C938E931A97D8
:101D5000E0918103F0918203848595851D969C9383
:101D60008E931C97E0918103F09182030484F585A2
:101D7000E02DB387A287E0918103F0918203B587BC
:101D8000A487E0917703F0917803F0938203E093C6
:101D9000810315828091B10281608093B102E0914C
:101DA0007703F0917803E993F9932183295F2383E3
:101DB0005283448330838581816085832F5F2C36F5
:101DC00009F085CFC3E1D3E020E030E040E350E00C
:101DD000E0917303F0917403F0937803E093770339
:101DE00084859585009729F41092740310927303EB
:101DF0000FC0A285B3851D969C938E931C97048477
:101E0000F585E02DB387A287F0937403E093730305
:101E10008091810390918203A0917703B091780320
:101E2000009799F40A2E1B2E1B961C920E921124D9
:101E30001A970A2E1B2E1D961C920E9211241C9787
:101E4000B0937A03A09379031DC01B969C938E9345
:101E50001A97E0918103F0918203848595851D9600
:101E60009C938E931C97E0918103F09182030484EC
:101E7000F585E02DB387A287E0918103F09182037D
:101E8000B587A487E0917703F0917803F0938203FC
:101E9000E093810315828091B10281608093B10249
:101EA000E0917703F0917803E993F993C90195954F
:101EB000879595958795BC01649FC001659F900D9E
:101EC000749F900D11248183815F8383C901837086
:101ED0009070029664E0880F991F6A95E1F78283FB
:101EE000815F848310828581816085832F5F3F4F6E
:101EF0002830310509F06CCFCFE3D3E040E050E06B
:101F000060E370E0E0917303F0917403F093780361
:101F1000E093770384859585009729F410927403E4
:101F2000109273030FC0A285B3851D969C938E9368
:101F30001C970484F585E02DB387A287F093740382
:101F4000E09373038091810390918203A0917703C2
:101F5000B0917803009799F40A2E1B2E1B961C92C1
:101F60000E9211241A970A2E1B2E1D961C920E9269
:101F700011241C97B0937A03A09379031DC01B967C
:101F80009C938E931A97E0918103F091820384854C
:101F900095851D969C938E931C97E0918103F091FB
:101FA00082030484F585E02DB387A287E091810345
:101FB000F0918203B587A487E0917703F0917803CD
:101FC000F0938203E093810315828091B1028160D6
:101FD0008093B102E0917703F0917803E993F9934C
:101FE000CA0195958795959587959C01269FC00177
:101FF000279F900D369F900D1124282F205C218360
:10200000815B8383CA0183709070029624E0880FFD
:10201000991F2A95E1F78283815F848310828581ED
:10202000816085834F5F5F4F4830510509F06ACF6B
:10203000E0917303F0917403F0937803E0937703D6
:1020400084859585009729F4109274031092730388
:102050000FC0A285B3851D969C938E931C97048414
:10206000F585E02DB387A287F0937403E0937303A3
:102070008091810390918203A0917703B0917803BE
:10208000009799F40A2E1B2E1B961C920E92112477
:102090001A970A2E1B2E1D961C920E9211241C9725
:1020A000B0937A03A09379031DC01B969C938E93E3
:1020B0001A97E0918103F0918203848595851D969E
:1020C0009C938E931C97E0918103F091820304848A
:1020D000F585E02DB387A287E0918103F09182031B
:1020E000B587A487E0917703F0917803F09382039A
:1020F000E093810315828091B10281608093B102E7
:10210000E0917703F0917803F0933903E09338037B
:102110001082E0913803F091390380E28183E091ED
:102120003803F09139038FE58383E0913803F09110
:10213000390380E68283E0913803F09139038FE719
:102140008483E0913803F091390385818160858330
:102150000E94010C8091B10282608093B102DF91F4
:10216000CF910895CF92DF92EF92FF920F931F933A
:10217000182FE0913803F0913903165F10831A503D
:102180008581816085838091B10282608093B102F4
:102190008091E6069091E706CC9690931003809389
:1021A0000F03143020F18091660281508093660203
:1021B000882331F485E08093F4021092F50238C14F
:1021C0000E947A0C1092FF021092FE0290E390930C
:1021D000A80281E38093A90290938B0290938C02D2
:1021E00090938D0290938E0290938F0266C011306F
:1021F00061F4809166028F5F80936602893018F0E7
:1022000088E0809366020E947A0CE091FE02F091D1
:10221000FF023196F093FF02E093FE02CF0165E0EA
:1022200070E00E94252C9B012F5F3F4FC9016AE09F
:1022300070E00E94252C605D6093A802C9016AE0ED
:1022400070E00E94252C805D8093A902CF0160E19F
:1022500077E20E94252C605D60938B02CF0168EECF
:1022600073E00E94252CCB016AE070E00E94252CCF
:10227000805D80938C02CF0164E670E00E94252C83
:10228000CB016AE070E00E94252C805D80938D0276
:10229000CF016AE070E00E94252CCB016AE070E07B
:1022A0000E94252C805D80938E02CF016AE070E051
:1022B0000E94252C805D80938F02E12FF0E0EF5982
:1022C000FD4F208130E08091FE029091FF0265E099
:1022D00070E00E94252C6F5F7F4F269F7001279F23
:1022E000F00C369FF00C112400E010E08091FA020F
:1022F0009091FB02A091FC02B091FD02E80EF91E44
:102300000A1F1B1FE092FA02F092FB020093FC02EC
:102310001093FD02C0905103D0905203C801B70141
:1023200020E137E240E050E00E944C2C2C5EF601A8
:102330002083C0905303D0905403C801B70128EE06
:1023400033E040E050E00E944C2CCA01B9012AE081
:1023500030E040E050E00E944C2C6C5EF60160835F
:10236000C0905503D0905603C801B70124E630E071
:1023700040E050E00E944C2CCA01B9012AE030E054
:1023800040E050E00E944C2C6C5EF6016083C090EF
:102390005703D0905803C801B7012AE030E040E06D
:1023A00050E00E944C2CCA01B9012AE030E040E024
:1023B00050E00E944C2C6C5EF6016083C090590383
:1023C000D0905A03C801B7012AE030E040E050E065
:1023D0000E944C2C6C5EF6016083E0915103F091F9
:1023E0005203858181608583E0915303F09154030A
:1023F000858181608583E0915503F0915603858145
:1024000081608583E0915703F09158038581816055
:102410008583E0915903F0915A038581816085831A
:102420008091B10282608093B10281E080933A038F
:102430001F910F91FF90EF90DF90CF900895E82FBC
:10244000F0E0A4E0EE0FFF1FAA95E1F7E60FF11D03
:10245000E557FD4F80E202C0819341504423E1F7EC
:1024600008951F93CF93DF938091F502882309F09D
:1024700074C085E292E09093680380936703909321
:1024800072038093710381E08093B00280936403B0
:10249000C0917303D0917403D0937803C0937703F2
:1024A0008C859D85009729F4109274031092730314
:1024B0000EC0AA85BB851D969C938E931C97EC85B8
:1024C000FD85B387A287F0937403E0937303A09113
:1024D0008103B0918203109749F4DB87CA87DD87B7
:1024E000CC87D0937A03C093790312C0BB87AA87A5
:1024F0001C968D919C911D979D878C871C96ED91C4
:10250000FC911D97D387C2871D96DC93CE931C97B1
:10251000D0938203C09381031D821091B102609118
:10252000FA027091FB028091FC029091FD0220E57D
:1025300033EC40E050E00E944C2C2D5D2883198242
:102540008FE78B8380E28A838FE58C8381E08D83A4
:1025500013601093B1028093F502DF91CF911F9128
:1025600008950F931F93CF93DF938091F5028823F3
:1025700009F07FC01092E7061092E606E09123036F
:10258000F091240310828581816085839091B1024E
:102590009260E0913B03F0913C0310828581816061
:1025A0008583E0913803F091390310828581816041
:1025B0008583A8E2B3E0ED91FC9111971082ED9133
:1025C000FD9185818160858383E0A833B80799F701
:1025D000A3E1B3E0ED91FC9111971082ED91FD9193
:1025E00085818160858383E0A332B80799F7909352
:1025F000B102AFE3B3E0ED91FC9111971082ED9140
:10260000FD9185818160858383E0AF34B80799F7B8
:102610009093B102A1E5B3E094E1ED91FC911197A3
:102620009083ED91FD9185818160858383E0AB3559
:10263000B80799F781E08093F50210923D0384E09A
:1026400080933E036091FA027091FB028091FC023C
:102650009091FD022AE030E040E050E00E944C2CD6
:102660006093270386E090E090935C0380935B0384
:1026700052C0C091E606D091E70680915B0390912D
:102680005C03C817D90708F446C080913D038F5FEB
:1026900080933D03909127039817C0F580913E03E6
:1026A000882331F486E08093F4021092F5024BC047
:1026B000815080933E0310923D0300916702109178
:1026C0006802980140E050E06091FA027091FB02CC
:1026D0008091FC029091FD020E944C2CCA01B9012C
:1026E0002AE030E040E050E00E944C2C6093270349
:1026F000C80133E0880F991F3A95E1F7000F111FC9
:10270000800F911F90936802809367022696D09362
:102710005C03C0935B03E0913E03F0E0EE0FFF1F0C
:10272000EF5AFC4FA081B18180913D038C5E8C9368
:102730000190F081E02D8581816085838091B102D7
:1027400082608093B102DF91CF911F910F91089524
:10275000EF92FF920F931F93CF93DF931092030397
:1027600080935003C4E0D3E0E82EFF2487010C0FD0
:102770001D1F07C00E94E42C67E070E00E94392C06
:102780008993C017D107B1F787E0888380EF90E085
:10279000B7010E94392C60930203E0911303F0917A
:1027A00014031082E0911303F0911403858181607A
:1027B00085839091B1029260E0911503F091160328
:1027C0001082E0911503F091160385818160858365
:1027D000E0911703F09118031082E0911703F09134
:1027E0001803858181608583E0911903F0911A03B4
:1027F0001082E0911903F0911A038581816085832D
:10280000E0911B03F0911C031082E0911B03F091F7
:102810001C03858181608583E0911D03F0911E0377
:102820001082E0911D03F0911E03858181608583F4
:10283000E0911F03F09120031082E0911F03F091BB
:102840002003858181608583E0912103F09122033B
:102850001082E0912103F0912203858181608583BC
:102860009093B1028091E6069091E706860F911D44
:102870009093010380930003DF91CF911F910F91FB
:10288000FF90EF900895CF93DF9320910003309154
:1028900001038091E6069091E7068217930708F4FA
:1028A00074C150910303C52FD0E0DE01AC5FBC4F73
:1028B0008C91873008F4B9C08091F502E0913B0318
:1028C000F0913C03882309F08BC021E020930E0394
:1028D0002083E0913B03F0913C03858181608583F7
:1028E0009091B10292601092030310923A03E0912A
:1028F0003F03F09140031082E0913F03F0914003C9
:10290000858181608583E0914103F09142031082CB
:10291000E0914103F0914203858181608583E091DC
:102920004303F09144031082E0914303F091440388
:10293000858181608583E0914503F0914603108293
:10294000E0914503F0914603858181608583E091A4
:102950004703F09148031082E0914703F091480348
:10296000858181608583E0914903F0914A0310825B
:10297000E0914903F0914A03858181608583E0916C
:102980004B03F0914C031082E0914B03F0914C0308
:102990008581816085839093B102E0914D03F09130
:1029A0004E031082E0914D03F0914E0385818160CA
:1029B00085839093B1022093F5028091E606909171
:1029C000E706CC96909301038093000320910203C5
:1029D0002695820F911D9093260380932503D5C0E1
:1029E00081E080930E038083E0913B03F0913C03F0
:1029F0008581816085838091B10282608093B1027C
:102A000088E00E94A81310925D031092F502809155
:102A1000E6069091E706CC9690930103809300031D
:102A20001092260310922503B0C08F5F80930E038F
:102A3000E0913B03F0913C038083E0913B03F091F4
:102A40003C038581816085834091B102426040935F
:102A5000B10280910203280F311D309301032093AE
:102A600000038091F502882309F04CC0EC91F0E05E
:102A7000EE0FFF1FE15BFD4F808191819093680312
:102A800080936703909372038093710381E0809336
:102A9000B002809364035523F9F0DE011197FD0124
:102AA000EE0FFF1FE15CFC4F20813181FD01EC5FE7
:102AB000FC4F8081882311F486E201C081E2F90194
:102AC0008083AA0FBB1FA15CBC4FED91FC91858157
:102AD000816085834093B102FE01EE0FFF1FE15C30
:102AE000FC4FA081B181FE01EC5FFC4F8081882307
:102AF00011F487E201C085E28C93CC0FDD1FC15C2D
:102B0000DC4F36C05523F9F0DE011197FD01EE0FC1
:102B1000FF1FED5EFC4F20813181FD01EC5FFC4F1A
:102B20008081882311F486E201C081E2F90180836B
:102B3000AA0FBB1FAD5EBC4FED91FC9185818160FA
:102B400085834093B102FE01EE0FFF1FED5EFC4F47
:102B5000A081B181FE01EC5FFC4F8081882311F4DC
:102B600087E201C085E28C93CC0FDD1FCD5EDC4F88
:102B7000E881F9818581816085838091B1028260DD
:102B80008093B1025F5F509303032091250330913E
:102B9000260321153105D1F18091E6069091E706D3
:102BA0008217930798F1E0915D03F0E0EC5FFC4F32
:102BB000E081E73058F580913A03882329F5EE2328
:102BC00031F480910D03823040F084E008C08091A0
:102BD0004F03882331F485E002C0813011F40E9454
:102BE000B21010924F03809102032091250330917F
:102BF0002603280F311D309326032093250380914F
:102C00005D038F5F80935D0310923A03DF91CF9154
:102C100008954091E5062091E6063091E7068CE3A1
:102C200090E0BC01269FC001279F900D369F900D1C
:102C30001124840F911D0E94E92C1092E706109236
:102C4000E60688E00E94A81384E08093F4021092C4
:102C5000F5028091E6069091E706CC9690930103E9
:102C60008093000308958091F502882371F4ABE806
:102C7000B2E0E0E0F1E08BE001900D928150E1F7ED
:102C800081E08093F5020E94AC0C8091640388235C
:102C900079F48EE591E090936803809367039093B5
:102CA00072038093710381E08093B0028093640388
:102CB0002091E6063091E706809100039091010390
:102CC00028173907F8F00E94E42C67E070E00E94B2
:102CD000392C8F5F80930E03E0913B03F0913C030E
:102CE00080838581816085838091B1028260809339
:102CF000B1028091E6069091E7064E96909301030B
:102D0000809300030895CF92DF92EF92FF920F938A
:102D10001F93CF93DF938C018091F70290E0081707
:102D2000190709F478C12091F402253009F473C120
:102D3000263009F470C10730110509F0BFC082E0E8
:102D40008093F4021BBC1ABC109264031092F5022B
:102D5000E090FA02F090FB020091FC021091FD025B
:102D6000C0905103D0905203C801B70120E137E26F
:102D700040E050E00E944C2C2C5EF6012083C09075
:102D80005303D0905403C801B70128EE33E040E06C
:102D900050E00E944C2CCA01B9012AE030E040E02A
:102DA00050E00E944C2C6C5EF6016083C09055038D
:102DB000D0905603C801B70124E630E040E050E06F
:102DC0000E944C2CCA01B9012AE030E040E050E0FA
:102DD0000E944C2C6C5EF6016083C0905703D0902B
:102DE0005803C801B7012AE030E040E050E00E94FB
:102DF0004C2CCA01B9012AE030E040E050E00E94CA
:102E00004C2C6C5EF6016083C0905903D0905A033D
:102E1000C801B7012AE030E040E050E00E944C2CAD
:102E20006C5EF6016083E0915103F091520385815D
:102E300081608583E0915303F09154038581816023
:102E40008583E0915503F0915603858181608583E8
:102E5000E0915703F0915803858181608583E0916B
:102E60005903F0915A038581816085838091B10275
:102E700082608093B102EBE8F2E080E201C08193CE
:102E800092E0EB39F907D9F780E201C0819392E033
:102E9000EB3AF907D9F7DF019097ECE0F1E08FE02A
:102EA00001900D928150E1F7ABE9B2E0ECE1F1E085
:102EB00080E101900D928150E1F7ADC0083011051D
:102EC00059F4E0915D03F0E0EC5FFC4F808167E036
:102ED0000E94192C092F10E0802F8F5F80930D0323
:102EE000E0912303F09124038083858181608583B1
:102EF0008091B10282608093B102243009F08BC0CE
:102F00002091F502213009F086C0F801EE0FFF1F75
:102F1000E15BFD4F8081918190936803809367030B
:102F200090937203809371032093B0022093640303
:102F300080913A03882309F06EC00115110591F0C4
:102F400080914F03882351F4E0915D03F0E0EC5F42
:102F5000FC4F808190E00817190721F084E00E945F
:102F6000B21056C080914F03882361F401151105FA
:102F700049F4E0915D03F0E0EC5FFC4F8081882331
:102F800009F049C0E0912503F09126038091E606FF
:102F90009091E706E81BF90BF695E795409102033F
:102FA000242F30E0C901880F991F880F991F65E011
:102FB00070E00E94392CE617F70710F085E024C076
:102FC000E901CC0FDD1FCE01820F931F65E070E099
:102FD0000E94392CE617F70710F084E015C0CE01E7
:102FE00065E070E00E94392CE617F70710F083E0E7
:102FF0000BC0842F65E00E94192C90E0E817F907B8
:1030000010F082E001C081E00E94B210012B19F0A3
:1030100081E080934F03DF91CF911F910F91FF903B
:10302000EF90DF90CF9008952F923F924F925F9252
:103030006F927F928F929F92AF92BF92CF92DF92C8
:10304000EF92FF920F931F93DF93CF9300D000D0A6
:1030500000D0CDB7DEB72FEF27BBBD9A80E48FBD80
:103060008AE08EBD10928B0088E080938A00809168
:103070007D00806180937D0080E09FE090938700D9
:10308000809386001ABA2093610021BB8FE1809360
:10309000620012BA809162008D7F8093620010926C
:1030A0007A03109279031092820310928103109296
:1030B0007C0310927B03109284031092830310927E
:1030C0007E0310927D03109286031092850349E8D7
:1030D00053E08BEA95E0909374038093730390938D
:1030E0009403809393039A01225F3F4F309396039A
:1030F000209395038DE995E09093B6058093B505EF
:103100005093B8054093B705F90109C0CF010E9758
:1031100093878287CF010E9695878487FC018091E3
:10312000730390917403E817F90781F710927803FD
:1031300010927703809162008260809362006BE15D
:10314000609362003AE13093620042E14093620092
:10315000A1E0A2BB0000309362005EE150936200E8
:103160009FE190936200609362003093620040930D
:1031700062008DEF82BB00003093620050936200CA
:103180009093620026E12093620042BB000090937E
:10319000620060936200309362004093620082BBE1
:1031A000000030936200509362009093620020937D
:1031B000620073EB72BB0000909362006093620048
:1031C000309362004093620080E1A82EA2BA000012
:1031D00030936200509362009093620060936200AB
:1031E000309362004093620082ED82BB0000309316
:1031F0006200509362009093620020936200A2BA32
:1032000000009093620060936200309362004093EC
:1032100062008AEC82BB000030936200509362002F
:1032200090936200209362000FE7B02EB2BA0000C4
:10323000909362006093620030936200409362005A
:1032400088EC82BB00003093620050936200909340
:1032500062002093620012BA0000909362006093B3
:103260006200309362004093620086E382BB0000FC
:10327000309362005093620090936200209362004A
:1032800088E882BB00009093620020936200A2BB9A
:10329000000090936200609362003093620040935C
:1032A00062008AE382BB00003093620050936200A8
:1032B000909362002093620085E082BB00009093AF
:1032C000620060936200309362004093620085E385
:1032D00082BB0000309362005093620090936200C2
:1032E00020936200A2BB0000909362006093620092
:1032F000309362004093620072BB00003093620022
:1033000050936200909362002093620013E0612E5C
:1033100062BA000090936200609362003093620092
:10332000409362008AEB82BB0000309362005093AE
:103330006200909362002093620083EC82BB0000E5
:103340009093620060936200309362004093620049
:103350008BEB82BB0000309362005093620090932D
:10336000620020936200B5E57B2E72BA0000909354
:1033700062006093620030936200409362008CEBC5
:1033800082BB000030936200509362009093620011
:103390002093620087E882BB0000909362006093F4
:1033A00062003093620040936200F1E57F2E72BAB2
:1033B000000030936200509362009093620020936B
:1033C000620080EF82BB0000909362006093620015
:1033D00030936200409362008EEB82BB000030931A
:1033E0006200509362009093620020936200A2BB3F
:1033F00000009093620020936200E4E02E2E22BA37
:103400000000909362002093620077E0872E82BADA
:103410000000909362002093620089E0582E52BA17
:10342000000090936200209362000BE0402E42BAAD
:10343000000090936200209362001CE0912E92BAEB
:10344000000090936200209362008DE082BB000038
:1034500090936200209362001EE012BB00009093E4
:10346000620020936200BFE0B2BB00009093620054
:1034700020936200A2BA0000909362002093620041
:10348000B1E13B2E32BA00009093620020936200BB
:1034900042BB00009093620020936200F3E1DF2EB4
:1034A000D2BA0000909362002093620022BB000019
:1034B00090936200209362008DE182BB00009093A4
:1034C000620020936200B1E2B2BB00009093620000
:1034D00020936200E3E2FE2EF2BA000090936200B5
:1034E0002093620084E282BB0000909362002093EC
:1034F00062008EE282BB0000909362002093620023
:1035000071E3E72EE2BA000090936200209362001C
:10351000E2E3E2BB00009093620020936200E7E3E5
:10352000E2BB00009093620020936200F1E4F2BBE2
:103530000000909362002093620073E472BB00006D
:1035400090936200209362008CE4682E62BA0000BF
:10355000909362002093620072BA00009093620020
:103560002093620084E582BB000090936200209368
:10357000620001E6C02EC2BA000090936200209360
:10358000620088E682BB0000909362002093620094
:103590008FE682BB0000909362002093620085E773
:1035A00082BB00009093620020936200B2BA0000D8
:1035B0009093620020936200A2BB0000909362008F
:1035C0002093620088E082BB000090936200209309
:1035D000620012BB00009093620020936200D2BA96
:1035E0000000909362002093620087E182BB00009C
:1035F000909362002093620032BB000090936200BF
:10360000209362008CE182BB0000909362002093C3
:10361000620052BB0000909362002093620092BB54
:103620000000909362002093620080E2882E82BAAC
:1036300000009093620020936200B2BB0000909360
:1036400062002093620002E2602E62BA0000909352
:10365000620020936200F2BA00009093620020930F
:10366000620085E2982E92BA000090936200209347
:1036700062008BE282BB00009093620020936200A4
:1036800000E3802E82BA00009093620020936200D3
:10369000E2BA0000909362002093620083E382BB51
:1036A00000009093620020936200E2BB00009093C0
:1036B00062002093620089E382BB00009093620065
:1036C00020936200F2BB000090936200209362009E
:1036D00072BB0000909362002093620087E482BB7B
:1036E0000000909362002093620080E582BB00009E
:1036F000909362002093620082E582BB0000909369
:1037000062002093620085E582BB00009093620016
:1037100020936200C2BA000090936200209362007E
:1037200083E682BB0000909362002093620084E6EF
:1037300082BB0000909362002093620080E7F82E25
:10374000F2BA0000909362002093620084E782BB8B
:1037500000009093620020936200B2BA0000909340
:10376000620020936200A2BB00009093620020934D
:10377000620022BA00009093620020936200A7E0EA
:10378000A2BB0000909362002093620052BA000036
:10379000909362002093620042BA0000909362000E
:1037A000209362008CE082BB000090936200209323
:1037B0006200ADE0A2BB0000909362002093620023
:1037C00012BB000090936200209362008FE082BBE6
:1037D00000009093620020936200A2BA00009093D0
:1037E00062002093620032BA00009093620020933E
:1037F000620042BB00009093620020936200D2BA44
:103800000000909362002093620022BB000090931E
:1038100062002093620052BB0000909362002093EC
:103820006200B2BB0000909362002093620062BA13
:103830000000909362002093620092BA000090937F
:103840006200209362008DE282BB000090936200D0
:103850002093620082BA000090936200209362007D
:10386000A2E3A2BB00009093620020936200E2BB3F
:1038700000009093620020936200F2BB00009093DE
:1038800062002093620072BB00009093620020935C
:103890006200BCE4B2BB000090936200209362001F
:1038A00072BA0000909362002093620086E582BBAA
:1038B0000000909362002093620082E682BB0000C9
:1038C000909362002093620089E682BB000090938F
:1038D000620020936200F2BA00009093620020938D
:1038E000620087E782BB0000909362002093620031
:1038F000B2BA00009093620060936200309362005D
:10390000409362008DEC82BB0000309362005093C4
:1039100062009093620020936200A2BB000090932B
:1039200062006093620030936200409362008DEB0E
:1039300082BB00003093620050936200909362005B
:103940002093620052BA000090936200609362007C
:1039500030936200409362008EEC82BB0000309393
:10396000620050936200909362002093620042BA1A
:103970000000909362006093620030936200409375
:1039800062008FEC82BB00003093620050936200B3
:103990009093620020936200E3E0E2BB000090930A
:1039A000620060936200309362004093620083ED96
:1039B00082BB0000309362005093620090936200DB
:1039C0002093620022BA000090936200609362002C
:1039D000309362004093620089E282BB0000309322
:1039E0006200509362009093620060936200309393
:1039F000620040936200F0E2F2BB0000309362008C
:103A00005093620090936200609362003093620072
:103A100040936200D2BA000030936200509362007B
:103A20009093620060936200309362004093620062
:103A300032BA0000309362005093620090936200AB
:103A40006093620030936200409362008AE282BB1E
:103A500000003093620050936200909362002093C4
:103A6000620012BA00009093620020936200B2BA22
:103A70000000909362006093620030936200409374
:103A800062000BE2602E62BA000030936200509335
:103A90006200909362002093620012BA000090933B
:103AA000620020936200B2BA0000909362006093BB
:103AB000620030936200409362008CE282BB00009F
:103AC00030936200509362009093620050E036E1C0
:103AD0002FEF12C03093620022BB0000909362006F
:103AE0003093620022BB0000909362008F5F8038A9
:103AF00089F75F5F503811F080E0ECCF8091B4021D
:103B00009091B502909338068093370628E0209371
:103B1000390630E130933A0610923C0610923B068B
:103B20008091B2029091B302909332068093310655
:103B300020933306309334061092360610923506E1
:103B40008091B6029091B70290933E0680933D0615
:103B500020933F0630934006109242061092410691
:103B60008091B8029091B9029093440680934306E5
:103B70002093450630934606109248061092470659
:103B80008091BA029091BB0290934A0680934906B5
:103B900020934B0630934C0610924E0610924D0621
:103BA0008091BC029091BD029093500680934F0685
:103BB00020935106309352061092540610925306E9
:103BC0008091BE029091BF02909356068093550655
:103BD000209357063093580610925A0610925906B1
:103BE0008091C0029091C10290935C0680935B0625
:103BF00020935D0630935E061092600610925F0679
:103C00008091C2029091C3029093620680936106F4
:103C10002093630630936406109266061092650640
:103C20008091C4029091C5029093680680936706C4
:103C30002093690630936A0610926C0610926B0608
:103C40008091DE029091DF029093FC058093FB054A
:103C500040E44093FD0520E22093FE058FE198EFBC
:103C6000909300068093FF058091D6029091D70231
:103C70009093020680930106409303062093040666
:103C800060EE77E070930606609305068091D4029B
:103C90009091D502909308068093070640930906F9
:103CA00020930A0680EE93E090930C0680930B0617
:103CB0008091CA029091CB0290930E0680930D06DC
:103CC00040930F06209310068FE190E09093120628
:103CD000809311068091DC029091DD02909314068E
:103CE000809313064093150681E280931606E0E068
:103CF000F8EFF0931806E09317068091CC029091AC
:103D0000CD029093C0058093BF052093C1054093D9
:103D1000C2051092C4051092C3058091CE02909105
:103D2000CF029093C6058093C5052093C7054093A5
:103D3000C8051092CA051092C9058091D2029091CF
:103D4000D3029093CC058093CB052093CD0540936F
:103D5000CE051092D0051092CF058091D802909197
:103D6000D9029093D2058093D1052093D305409337
:103D7000D4051092D6051092D5058091DA02909163
:103D8000DB029093D8058093D7052093D905409303
:103D9000DA051092DC051092DB058091E00290912B
:103DA000E1029093DE058093DD052093DF054093CB
:103DB000E0051092E2051092E1058091C602909113
:103DC000C7029093E4058093E3052093E5054093B3
:103DD000E6051092E8051092E7058091E2029091C5
:103DE000E3029093740680937306309375063093C4
:103DF0007606F0937806E09377068091E80290913A
:103E0000E9029093800680937F0630938106309379
:103E100082061092840610928306909398068093EF
:103E200097063093990630939A0670939C06609398
:103E30009B068091EE029091EF0290939E068093F4
:103E40009D0630939F063093A0061092A206109212
:103E5000A1069093A4068093A3063093A506309301
:103E6000A6067093A8066093A7068091C802909159
:103E7000C902909386068093850680E38093870627
:103E80003093880610928A06109289068091EA0281
:103E90009091EB0290938C0680938B0650938D0645
:103EA00040938E061092900610928F068091EC023D
:103EB0009091ED0290939206809391065093930611
:103EC00040939406109296061092950680918A006F
:103ED0008B6080938A0078941FE1B12EB6E1AB2EFF
:103EE0008091110387FF9FC280916A02882321F08D
:103EF000815080936A0294C29091690294FF02C03B
:103F00000C94CE2B90FF0DC077247A9474BA8091D4
:103F1000640087608093640080E480936A0282E09A
:103F20005DC291FF15C0809165008E7F8093650012
:103F300088E385BB809165008460809365008091F3
:103F400065008B7F8093650010926A0284E046C210
:103F500092FF15C0809165008E7F809365008CE094
:103F600085BB8091650084608093650080916500C9
:103F70008B7F8093650010926A0288E02FC2809147
:103F800065008E7F809365008824839485BA809134
:103F90006500846080936500809165008B7F8093CD
:103FA000650080E280936A02A0E19A2E90926902F5
:103FB00037C2E22FF0E0DF01A557BD4FE559FD4FB5
:103FC00090818C91981709F0F0C12F5F2F71209389
:103FD0001203E22FF0E0DF01A557BD4FE559FD4F79
:103FE00090818C91981709F0E0C12F5F2F71209379
:103FF0001203E22FF0E0DF01A557BD4FE559FD4F59
:1040000090818C91981709F0D0C12F5F2F71209368
:104010001203E22FF0E0DF01A557BD4FE559FD4F38
:1040200090818C91981709F0C0C12F5F2F71209358
:104030001203E22FF0E0DF01A557BD4FE559FD4F18
:1040400090818C91981709F0B0C12F5F2F71209348
:104050001203E22FF0E0DF01A557BD4FE559FD4FF8
:1040600090818C91981709F0A0C12F5F2F71209338
:104070001203E22FF0E0DF01A557BD4FE559FD4FD8
:1040800090818C91981709F090C12F5F2F71209328
:104090001203E22FF0E0DF01A557BD4FE559FD4FB8
:1040A00090818C91981709F080C12F5F2F71209318
:1040B0001203E22FF0E0DF01A557BD4FE559FD4F98
:1040C00090818C91981709F070C12F5F2F71209308
:1040D0001203E22FF0E0DF01A557BD4FE559FD4F78
:1040E00090818C91981709F060C12F5F2F712093F8
:1040F0001203E22FF0E0DF01A557BD4FE559FD4F58
:1041000090818C91981709F050C12F5F2F712093E7
:104110001203E22FF0E0DF01A557BD4FE559FD4F37
:1041200090818C91981709F040C12F5F2F712093D7
:104130001203E22FF0E0DF01A557BD4FE559FD4F17
:1041400090818C91981709F030C12F5F2F712093C7
:104150001203E22FF0E0DF01A557BD4FE559FD4FF7
:1041600090818C91981709F020C12F5F2F712093B7
:104170001203E22FF0E0DF01A557BD4FE559FD4FD7
:1041800090818C91981709F010C12F5F2F712093A7
:104190001203E22FF0E0DF01A557BD4FE559FD4FB7
:1041A00090818C91981709F000C12F5F2F71209397
:1041B0001203E22FF0E0DF01A557BD4FE559FD4F97
:1041C00090818C91981709F0F0C02F5F2F71209388
:1041D0001203E22FF0E0DF01A557BD4FE559FD4F77
:1041E00090818C91981709F0E0C02F5F2F71209378
:1041F0001203E22FF0E0DF01A557BD4FE559FD4F57
:1042000090818C91981709F0D0C02F5F2F71209367
:104210001203E22FF0E0DF01A557BD4FE559FD4F36
:1042200090818C91981709F0C0C02F5F2F71209357
:104230001203E22FF0E0DF01A557BD4FE559FD4F16
:1042400090818C91981709F0B0C02F5F2F71209347
:104250001203E22FF0E0DF01A557BD4FE559FD4FF6
:1042600090818C91981709F0A0C02F5F2F71209337
:104270001203E22FF0E0DF01A557BD4FE559FD4FD6
:1042800090818C91981709F090C02F5F2F71209327
:104290001203E22FF0E0DF01A557BD4FE559FD4FB6
:1042A00090818C91981709F080C02F5F2F71209317
:1042B0001203E22FF0E0DF01A557BD4FE559FD4F96
:1042C00090818C91981709F070C02F5F2F71209307
:1042D0001203E22FF0E0DF01A557BD4FE559FD4F76
:1042E00090818C91981709F060C02F5F2F712093F7
:1042F0001203E22FF0E0DF01A557BD4FE559FD4F56
:1043000090818C91981709F050C02F5F2F712093E6
:104310001203E22FF0E0DF01A557BD4FE559FD4F35
:1043200090818C91981709F040C02F5F2F712093D6
:104330001203E22FF0E0DF01A557BD4FE559FD4F15
:1043400090818C91981789F52F5F2F71209312031C
:10435000E22FF0E0DF01A557BD4FE559FD4F9081F9
:104360008C91981711F52F5F2F7120931203E22F74
:10437000F0E0DF01A557BD4FE559FD4F90818C91CD
:10438000981799F42F5F2F7120931203E22FF0E01A
:10439000DF01A557BD4FE559FD4F90818C919817CE
:1043A00021F42F5F2F7120931203809165008E7F7F
:1043B0008093650080911203803108F0805D8068F1
:1043C00085BB809165008460809365008091650065
:1043D0008B7F8093650010926A0280E3809369026C
:1043E0001FC080916500816080936500E22FF0E03E
:1043F000DF01A557BD4F8C9185BB8091650084601E
:1044000080936500809165008B7F8093650010929A
:104410006A02E559FD4F8C91808320E12093690267
:104420001092110303C08F5F809311038091B1023A
:10443000803809F458C48F778093B10280FF5BC045
:10444000A1E8B3E000E010E06D917C911197611557
:104450007105F1F1402F4F5F443069F0242F30E0B7
:10446000220F331FF901EF57FC4F80819181892B77
:1044700091F30C94D62B40E001C04F5F242F30E025
:10448000220F331FF901EF57FC4F80819181892B57
:10449000A1F3F901E758FC4F80819181DB011D9662
:1044A0009C938E931C9720813181000F111F0F5711
:1044B0001C4FD8018D919C91D9011B969C938E9392
:1044C0001A9780819181909376038093750307C03A
:1044D0000F5F1F4F12960430110509F0B5CF809180
:1044E000750390917603909378038093770380917E
:1044F000B1028E7FF6C382FF86C04BE1409362001B
:104500009AE19093620032E1309362008AE282BBCA
:104510000000909362002EE120936200B09262004E
:10452000A092620012BA0000B0926200A0926200F3
:104530005FE752BB0000B09262004093620090932C
:104540006200309362008BE282BB000090936200B5
:1045500020936200B0926200A092620012BA000042
:10456000B0926200A092620052BB0000B092620062
:104570004093620090936200309362008CE282BBB1
:1045800000009093620020936200B092620090E07D
:1045900015C0B6E1B0936200EFEFE2BB0000FFE1AF
:1045A000F0936200B0936200E2BB0000F0936200FF
:1045B0008F5F803871F79F5F903811F080E0E9CF0E
:1045C000E0917503F09176033097C9F0F09378038A
:1045D000E09377039581892F8073803211F4916085
:1045E00095830484F585E02D809175039091760381
:1045F000E817F90779F7F0937803E0937703809150
:10460000B102897F6EC3209175033091760381FFDB
:1046100092C0232B09F48BC0E0917503F0917603CF
:1046200051E04581242F30E0C90185709070892BBD
:1046300009F45AC0842F807909F056C04068458338
:10464000DF0115962C911597822F847B803209F01B
:1046500043C0858180FF1DC0918113968C91139773
:104660008917B8F0928114968C911497891788F065
:10467000938111968C911197981758F09481129606
:104680008C911297981728F0216015962C93159706
:1046900050E0858182FF20C0968113968C911397FC
:1046A0008917D0F0978114968C9114978917A0F0F0
:1046B000908511968C911197981770F091851296AC
:1046C0008C911297981740F015968C9115978160F0
:1046D00015968C93159750E01C960D90BC91A02DCB
:1046E000AE17BF0709F0ADCF0484F585E02D8091AA
:1046F000750390917603E817F90709F092CF5523D7
:1047000009F48ACFF0937803E093770385818F775C
:1047100085830484F585E02D80917503909176035F
:10472000E817F90799F7F0937803E09377038091FE
:10473000B1028D7FD6C2232B09F4D2C280907703B9
:10474000909078032401D2011596FC911597F4FD01
:10475000B3C2F2FF7FC0F5FF79C019966C9119972B
:1047600017965C9117971896EC91189716967C916E
:104770002E2F30E02F5F3F4F271B3109862F90E00F
:104780000196851B9109289FD001299FB00D389F64
:10479000B00D11244BE1409362009AE190936200C6
:1047A00032E1309362008BE282BB000090936200A2
:1047B0002EE120936200B0926200A092620052BB90
:1047C0000000B0926200A092620062BB0000B09252
:1047D00062004093620090936200309362008AE22C
:1047E00082BB00009093620020936200B09262004E
:1047F000A092620072BB0000B0926200A0926200C0
:10480000E2BB0000B09262004093620090936200AD
:10481000309362008CE282BB000090936200209390
:104820006200B0926200A0926200EFEFE2BB000073
:10483000B0926200A0926200E2BB0000B0926200FF
:10484000119789F7FF7DD2011596FC93F2018581BE
:104850008B7F8583D20115968C91159780FF8FC130
:104860002C9186FFA7C0822F90E0FC01EE0FFF1F66
:10487000E80FF91FEE0FFF1FDF01A754BA4F139681
:10488000FC901397E554FA4FE0801496DC9014974F
:104890004BE1409362009AE19093620032E13093E1
:1048A00062008AE282BB0000909362002EE12093B6
:1048B0006200B0926200A0926200F201818182BB2C
:1048C0000000B0926200A0926200838182BB00006F
:1048D000B092620040936200909362003093620055
:1048E0008BE282BB00009093620020936200B09242
:1048F0006200A0926200828182BB0000B0926200DE
:10490000A0926200848182BB0000B092620040935A
:10491000620090936200309362008CE282BB0000E0
:104920009093620020936200B0926200F2949FE044
:10493000F9224E2D50E0440F551F0D90BC91A02D33
:1049400070E032C0008111812FE030E0C801022EFA
:1049500002C0969587950A94E2F780FF0AC0A0925C
:10496000620012BA0000B0926200A0926200D2BA55
:104970000BC0A092620066246A9462BA0000B092F2
:104980006200A092620062BA0000B0926200215000
:1049900030408FEF2F3F3807C9F66F5F32966E15A4
:1049A00088F27F5FA40FB51F7F1508F0C8C0FD0116
:1049B00060E0F5CFD2011496CC9014971296DC905B
:1049C00012971396EC9013971196FC90822F90E01B
:1049D000FC01EE0FFF1FE80FF91FEE0FFF1FE7545A
:1049E000FA4F0081118164807580222311F400E068
:1049F00010E02E2D30E02F5F3F4F2F1931098C2D05
:104A000090E001968D199109FC012E9FC0012F9F06
:104A1000900D3E9F900D112460E170E00E94392CB2
:104A20004BE1409362009AE19093620032E130934F
:104A300062008AE282BB0000909362002EE1209324
:104A40006200B0926200A0926200F2BA0000B092DE
:104A50006200A0926200E2BA0000B092620040934D
:104A6000620090936200309362008BE282BB000090
:104A70009093620020936200B0926200A092620064
:104A8000D2BA0000B0926200A0926200C2BA0000E6
:104A9000B092620040936200909362003093620093
:104AA0008CE282BB00009093620020936200B0927F
:104AB00062000115110571F1F801459154912FE043
:104AC00030E0CA01022E02C0969587950A94E2F75B
:104AD00080FF0AC0A092620072BA0000B092620029
:104AE000A092620062BA0AC0A0926200FFEFF2BB1D
:104AF0000000B0926200A0926200F2BB0000B0928F
:104B00006200215030408FEF2F3F3807D1F60E5F03
:104B10001F4F11C080E0A09262009FEF92BB000087
:104B2000B0926200A092620092BB0000B09262005C
:104B30008F5F803181F76150704009F0BACFD201A8
:104B400011968C91119716968C93169712968C91BC
:104B5000129717968C93179713968C911397189614
:104B60008C93189714968C91149719968C93199787
:104B700015968C9115978E7D806215968C93F20117
:104B8000858181FF8EC0648575850284F385E02D63
:104B900064877587D2011C968D919C911D97DC01CD
:104BA0001B96FC93EE931A9721E833E049E753E014
:104BB0008A01E0E0F0E0D9018D919C9148165906F8
:104BC000C9F4CF01880F991FFC01E758FC4F2081E1
:104BD0003181DC01AF57BC4F4216530629F41182D4
:104BE00010821D921C9220C0F201828593858D93C4
:104BF0009C931AC0D8018D919C914816590661F476
:104C0000EE0FFF1FE758FC4FD2011C968D919C912F
:104C10001D979183808308C031962E5F3F4F0E5FB2
:104C20001F4FE430F10539F68091750390917603BA
:104C300048165906D9F4F2018485958584159505A1
:104C400029F4109276031092750310C0DA018D9149
:104C50009C91009729F0909376038093750306C08A
:104C60004E5F5F4FB3E041385B0781F7809173037C
:104C700090917403009741F450927403409273032F
:104C8000F2011586148609C0D2011D969C938E935D
:104C90001C975092740340927303F20115822B010A
:104CA00014C083FF05C0877E8061D20115968C9366
:104CB000F2014484558409C0D2011C964D905C9049
:104CC0001D974814590409F03ECD4114510441F098
:104CD0004814590429F0509278034092770303C096
:104CE00080E88093B10280916403882309F4C9C4E9
:104CF00020916D0330916E0340916F0350917003CA
:104D00008091AC029091AD02A091AE02B091AF0241
:104D1000281739074A075B0708F4A7C40091B002B7
:104D200001500093B002002309F44AC464C42091E6
:104D3000710330917203F901808190E0FC01B49716
:104D4000E233F10508F033C4EA5BFF4FEE0FFF1FBB
:104D50000590F491E02D09948091AB02282F30E06A
:104D6000853038F02450304086EC9DE0A0E0B0E083
:104D7000C9C0C701821B930B26EC3DE040E050E028
:104D8000E5C08091AB02282F30E0853038F0245008
:104D9000304083E59CE0A0E0B0E0B4C0C701821BD6
:104DA000930B23E53CE040E050E0D0C08091AB02A3
:104DB000282F30E0853038F0245030408EEE9AE0D5
:104DC000A0E0B0E09FC0C701821B930B2EEE3AE03B
:104DD00040E050E0BBC08091AB02282F30E085302E
:104DE00038F0245030408FE49AE0A0E0B0E08AC070
:104DF000C701821B930B2FE43AE040E050E0A6C0CD
:104E00008091AB02282F30E0853038F024503040BC
:104E100085E399E0A0E0B0E075C0C701821B930B69
:104E200025E339E040E050E091C08091AB02282FAB
:104E300030E0853028F024503040D201C10162C0FA
:104E4000C701821B930BA201910180C08091AB022C
:104E5000282F30E0853028F024503040D401C301A1
:104E600051C0C701821B930BA40193016FC08091B5
:104E7000AB02282F30E0853038F02450304082E0FB
:104E80009DE0A0E0B0E03EC0C701821B930B22E092
:104E90003DE040E050E05AC08091AB02282F30E066
:104EA000853038F02450304080EA9BE0A0E0B0E04C
:104EB00029C0C701821B930B20EA3BE040E050E091
:104EC00045C08091AB02282F30E0853038F0245067
:104ED000304082EC99E0A0E0B0E014C0C701821B32
:104EE000930B22EC39E040E050E030C08091AB02FF
:104EF000282F30E0853070F0245030408CEA98E064
:104F0000A0E0B0E004C0B695A795979587952A953F
:104F1000D2F725C0C701821B930B2CEA38E040E092
:104F200050E014C08091AB02282F30E0853038F07B
:104F3000245030408BEB97E0A0E0B0E0E3CFC70116
:104F4000821B930B2BEB37E040E050E004C0220FB4
:104F5000331F441F551F8A95D2F7DA01C901909378
:104F60006C0380936B03F7C2A9014F5F5F4F5A83B5
:104F700049835093720340937103D90111962C9188
:104F800030E02E5C3F4F442737FD4095542F68E8B2
:104F900075EF84E090E00E944C2C2093AC0230939B
:104FA000AD024093AE025093AF02E981FA8131968F
:104FB000F0937203E093710312C3C90101969093B9
:104FC000720380937103D90111962C912093AB0247
:104FD000CFC2F9013196F0937203E0937103D901C6
:104FE00011968C918093690310926A033196F09325
:104FF0007203E093710331978181863409F468C0AC
:10500000873488F4833411F1843438F4813409F41A
:105010008BC0823409F004C199C0843469F18534AD
:1050200009F0FEC03FC0893409F4B8C08A3438F4AE
:10503000873409F463C0883409F0F2C099C08A3417
:1050400009F4C2C08B3409F0EBC0D4C0809169036D
:1050500090916A038530910530F0049726EC3DE08D
:1050600040E050E0E9C0A701481B590BCA0126ECFB
:105070003DE040E050E0F0C08091690390916A0308
:105080008530910530F0049723E53CE040E050E0A6
:10509000D3C0A701481B590BCA0123E53CE040E0FF
:1050A00050E0DAC08091690390916A0385309105E0
:1050B00030F004972EEE3AE040E050E0BDC0A7018A
:1050C000481B590BCA012EEE3AE040E050E0C4C044
:1050D0008091690390916A038530910530F00497BF
:1050E0002FE43AE040E050E0A7C0A701481B590B6D
:1050F000CA012FE43AE040E050E0AEC0809169037D
:1051000090916A038530910530F0049725E339E0EA
:1051100040E050E091C0A701481B590BCA0125E3AC
:1051200039E040E050E098C08091690390916A03B3
:105130008530910520F00497A20191017DC0A7015F
:10514000481B590BCA01A201910186C080916903D5
:1051500090916A038530910520F00497A401930192
:105160006BC0A701481B590BCA01A401930174C06D
:105170008091690390916A038530910530F004971E
:1051800022E03DE040E050E057C0A701481B590B2A
:10519000CA0122E03DE040E050E05EC0809169033A
:1051A00090916A038530910530F0049720EA3BE046
:1051B00040E050E041C0A701481B590BCA0120EA5A
:1051C0003BE040E050E048C08091690390916A0361
:1051D0008530910530F0049722EC39E040E050E052
:1051E0002BC0A701481B590BCA0122EC39E040E053
:1051F00050E032C08091690390916A038530910537
:1052000030F004972CEA38E040E050E015C0A701E8
:10521000481B590BCA012CEA38E040E050E01CC0A2
:105220008091690390916A038530910568F0049735
:105230002BEB37E040E050E004C05695479537959A
:1052400027958A95D2F70FC0A701481B590BCA01B1
:105250002BEB37E040E050E004C0220F331F441F27
:10526000551F8A95D2F73093630320936203E09130
:105270007103F0917203DF011196B0937203A09352
:10528000710381818093690310926A031196B09330
:105290007203A0937103119711968C91863409F4CF
:1052A00068C0873488F4833411F1843438F481344D
:1052B00009F48BC0823409F004C199C0843469F1C7
:1052C000853409F0FEC03FC0893409F4B8C08A347F
:1052D00038F4873409F463C0883409F0F2C099C007
:1052E0008A3409F4C2C08B3409F0EBC0D4C0809179
:1052F000690390916A038530910530F0049726EC9C
:105300003DE040E050E0E9C0A701481B590BCA014D
:1053100026EC3DE040E050E0F0C0809169039091C0
:105320006A038530910530F0049723E53CE040E0C6
:1053300050E0D3C0A701481B590BCA0123E53CE04C
:1053400040E050E0DAC08091690390916A038530B3
:10535000910530F004972EEE3AE040E050E0BDC0F9
:10536000A701481B590BCA012EEE3AE040E050E07D
:10537000C4C08091690390916A038530910530F033
:1053800004972FE43AE040E050E0A7C0A701481B93
:10539000590BCA012FE43AE040E050E0AEC08091E2
:1053A000690390916A038530910530F0049725E3F5
:1053B00039E040E050E091C0A701481B590BCA01F9
:1053C00025E339E040E050E098C080916903909176
:1053D0006A038530910520F00497A20191017DC0F8
:1053E000A701481B590BCA01A201910186C08091F7
:1053F000690390916A038530910520F00497A40118
:1054000093016BC0A701481B590BCA01A40193016A
:1054100074C08091690390916A038530910530F0E2
:10542000049722E03DE040E050E057C0A701481B50
:10543000590BCA0122E03DE040E050E05EC080919F
:10544000690390916A038530910530F0049720EA52
:105450003BE040E050E041C0A701481B590BCA01A6
:1054600020EA3BE040E050E048C080916903909121
:105470006A038530910530F0049722EC39E040E072
:1054800050E02BC0A701481B590BCA0122EC39E0A0
:1054900040E050E032C08091690390916A0385300A
:1054A000910530F004972CEA38E040E050E015C058
:1054B000A701481B590BCA012CEA38E040E050E034
:1054C0001CC08091690390916A038530910568F052
:1054D00004972BEB37E040E050E004C05695479529
:1054E000379527958A95D2F70FC0A701481B590B0E
:1054F000CA012BEB37E040E050E004C0220F331F1D
:10550000441F551F8A95D2F7309366032093650395
:10551000E0917103F0917203CF01019690937203B1
:105520008093710321812093690310926A0301968D
:10553000909372038093710380916203909163034F
:1055400090936C0380936B032093B00248C0109239
:105550006C0310926B03E0917103F0917203CF0121
:105560000196909372038093710321812093B0027E
:10557000019621C0C9010196909372038093710333
:1055800090936803809367032AC010926C03109273
:105590006B038091670390916803909372038093EB
:1055A000710331E03093B0021092640318C080910F
:1055B00067039091680390937203809371030FC007
:1055C00044E0E42EF12C32E3232E38E0332E412C3C
:1055D000512C21E5622E27E0722E812C912C809196
:1055E000B002882309F4A3CB80916B0390916C03E4
:1055F0009BBD8ABD31C04090690350906A0341143D
:10560000510451F1C0906503D0906603602F70E0A3
:1056100080E090E0209162033091630340E050E02D
:1056200036018824992426193709480959090E9406
:10563000FA2B920140E050E00E946E2CC20ED31E65
:10564000D0926C03C0926B03DBBCCABC013021F466
:1056500010926A031092690310926D0310926E0308
:1056600010926F03109270030CC02F5F3F4F4F4F8B
:105670005F4F20936D0330936E0340936F035093FD
:10568000700329B32093F6028091F702281781F165
:1056900020FF03C081E090E029C021FF03C082E029
:1056A00090E024C022FF03C083E090E01FC024FFED
:1056B00003C084E090E01AC025FF03C085E090E0BD
:1056C00015C026FF03C086E090E010C08091F40270
:1056D000882329F423FF08C087E090E007C027FF54
:1056E00003C088E090E002C080E090E00E94831652
:1056F0008091F6028093F7028091E506882311F4E9
:105700000C94701F8091E50681508093E50680918E
:10571000E6069091E70601969093E7068093E606E9
:1057200020910F03309110038217930788F0E091C6
:105730003803F09139031082E0913803F091390376
:105740008581816085838091B10282608093B102FE
:105750008091F4028430C1F0853038F4882361F000
:10576000823011F00C94701F0BC0853089F08630A8
:1057700011F00C94701F0EC00E9433160C94701F11
:105780000E9409160C94701F0E9443140C94701F01
:105790000E94B1120E9431120C94701F20911203CA
:1057A000903111F00C94F1210C94D91F27583C4FE3
:1057B000F90180819181FB0195878487F90120811E
:1057C00031818D919C911197F901938782870C9477
:1057D00068221F920F920FB60F9211248F9380911F
:1057E000E5068F5F8093E5068F910F900FBE0F90B7
:1057F0001F901895629FD001739FF001829FE00D6A
:10580000F11D649FE00DF11D929FF00D839FF00D3F
:10581000749FF00D659FF00D9927729FB00DE11DEB
:10582000F91F639FB00DE11DF91FBD01CF011124C8
:105830000895991B79E004C0991F961708F0961BEC
:10584000881F7A95C9F780950895AA1BBB1B51E163
:1058500007C0AA1FBB1FA617B70710F0A61BB70BE0
:10586000881F991F5A95A9F780959095BC01CD0185
:10587000089597FB092E07260AD077FD04D0E5DFAF
:1058800006D000201AF4709561957F4F0895F6F7C1
:10589000909581959F4F0895A1E21A2EAA1BBB1BDC
:1058A000FD010DC0AA1FBB1FEE1FFF1FA217B307EC
:1058B000E407F50720F0A21BB30BE40BF50B661F02
:1058C000771F881F991F1A9469F7609570958095C6
:1058D00090959B01AC01BD01CF01089597FB092E66
:1058E00005260ED057FD04D0D7DF0AD0001C38F4AF
:1058F00050954095309521953F4F4F4F5F4F0895FC
:10590000F6F790958095709561957F4F8F4F9F4FDB
:105910000895AF92BF92CF92DF92EF92FF920F93D2
:105920001F93CF93DF93EC01A880B980CA80DB80FE
:10593000A114B104C104D10441F484E2A82E89ED7C
:10594000B82E8BE5C82E87E0D82EC601B5012DE113
:1059500033EF41E050E00E946E2C27EA31E440E052
:1059600050E00E94FA2B7B018C01C601B5012DE1AC
:1059700033EF41E050E00E946E2CCA01B9012CEED9
:1059800034EF4FEF5FEF0E94FA2B6E0D7F1D801FEB
:10599000911F97FF04C06150704080409048688319
:1059A00079838A839B839B013F77C901DF91CF91E4
:1059B0001F910F91FF90EF90DF90CF90BF90AF902D
:1059C00008950E94892C089580EF92E00E94892C0E
:1059D0000895A0E0B0E08093F0029093F102A093CC
:0C59E000F202B093F3020895F894FFCF98
:1059EC00507265737320342062746E003030303026
:1059FC00302020202020434F4D424F0053434F5224
:105A0C00452052415445205B7830315D0054FF4FA6
:105A1C000643042454FF4F0644042454FF4F064508
:105A2C00042454FF4F0646042454FF4F0647042415
:105A3C0054FF4F0646042454FF4F03420424541AC7
:105A4C004F06430452044F0542064102470C4604DC
:105A5C0045065202440652024304520847044108C8
:105A6C00520441044208520442044F0643185204A3
:105A7C004303520143044F054202520241025202B7
:105A8C004702520247064602450252024F064303A2
:105A9C00520143044F054202520241025202470294
:105AAC005202470646024502520245035201450284
:105ABC005202450252024502520245024602470872
:105ACC00520446024502440252024402520244026B
:105ADC005202440245024608520445024402430263
:105AEC0052024F0643084F05410252024706460236
:105AFC004502520246025202450252064402520626
:105B0C004302520E24541A4F0547035201470352C5
:105B1C0001470352014919520346035201460352ED
:105B2C000146035201441924541A55054C034C0ADE
:105B3C00242D0134013B0142014901500100008038
:105B4C003F644B321900080A00014020202020201D
:105B5C002020202020202020202020202020202039
:105B6C002020202020202020202020202020202029
:105B7C002020202020202020202020202020202019
:105B8C002020202020202020202020052815000067
:105B9C000180F00000011001200130014001500192
:105BAC0060017001800190019002F002F003F0049A
:105BBC00F005F006F007F008F009F00AF00BF80C0D
:105BCC00F80DF80E200F600F800FA00FA013A01778
:045BDC0001000000C4
:00000001FF
